{
	"abi": [
		{
			"constant": true,
			"inputs": [],
			"name": "m",
			"outputs": [
				{
					"name": "",
					"type": "int128"
				}
			],
			"payable": false,
			"stateMutability": "view",
			"type": "function"
		},
		{
			"constant": true,
			"inputs": [],
			"name": "get",
			"outputs": [
				{
					"name": "",
					"type": "int128"
				}
			],
			"payable": false,
			"stateMutability": "view",
			"type": "function"
		},
		{
			"constant": false,
			"inputs": [
				{
					"name": "newM",
					"type": "int128"
				}
			],
			"name": "set",
			"outputs": [],
			"payable": false,
			"stateMutability": "nonpayable",
			"type": "function"
		}
	],
	"bytecode": {
		"linkReferences": {},
		"object": "0x608060405234801561001057600080fd5b50610125806100206000396000f30060806040526004361060525763ffffffff7c01000000000000000000000000000000000000000000000000000000006000350416635a2ee019811460575780636d4ce63c146082578063795313b0146094575b600080fd5b348015606257600080fd5b50606960ae565b60408051600f92830b90920b8252519081900360200190f35b348015608d57600080fd5b50606960b7565b348015609f57600080fd5b5060ac600435600f0b60c0565b005b600054600f0b81565b600054600f0b90565b60008054600f9290920b6fffffffffffffffffffffffffffffffff166fffffffffffffffffffffffffffffffff199092169190911790555600a165627a7a723058204fdee4cec6b23ead2a2e1e1f4cdda8d8dfbacb849d0ba2dc6e75a26fc12708560029",
		"opcodes": "PUSH1 0x80 PUSH1 0x40 MSTORE CALLVALUE DUP1 ISZERO PUSH2 0x10 JUMPI PUSH1 0x0 DUP1 REVERT JUMPDEST POP PUSH2 0x125 DUP1 PUSH2 0x20 PUSH1 0x0 CODECOPY PUSH1 0x0 RETURN STOP PUSH1 0x80 PUSH1 0x40 MSTORE PUSH1 0x4 CALLDATASIZE LT PUSH1 0x52 JUMPI PUSH4 0xFFFFFFFF PUSH29 0x100000000000000000000000000000000000000000000000000000000 PUSH1 0x0 CALLDATALOAD DIV AND PUSH4 0x5A2EE019 DUP2 EQ PUSH1 0x57 JUMPI DUP1 PUSH4 0x6D4CE63C EQ PUSH1 0x82 JUMPI DUP1 PUSH4 0x795313B0 EQ PUSH1 0x94 JUMPI JUMPDEST PUSH1 0x0 DUP1 REVERT JUMPDEST CALLVALUE DUP1 ISZERO PUSH1 0x62 JUMPI PUSH1 0x0 DUP1 REVERT JUMPDEST POP PUSH1 0x69 PUSH1 0xAE JUMP JUMPDEST PUSH1 0x40 DUP1 MLOAD PUSH1 0xF SWAP3 DUP4 SIGNEXTEND SWAP1 SWAP3 SIGNEXTEND DUP3 MSTORE MLOAD SWAP1 DUP2 SWAP1 SUB PUSH1 0x20 ADD SWAP1 RETURN JUMPDEST CALLVALUE DUP1 ISZERO PUSH1 0x8D JUMPI PUSH1 0x0 DUP1 REVERT JUMPDEST POP PUSH1 0x69 PUSH1 0xB7 JUMP JUMPDEST CALLVALUE DUP1 ISZERO PUSH1 0x9F JUMPI PUSH1 0x0 DUP1 REVERT JUMPDEST POP PUSH1 0xAC PUSH1 0x4 CALLDATALOAD PUSH1 0xF SIGNEXTEND PUSH1 0xC0 JUMP JUMPDEST STOP JUMPDEST PUSH1 0x0 SLOAD PUSH1 0xF SIGNEXTEND DUP2 JUMP JUMPDEST PUSH1 0x0 SLOAD PUSH1 0xF SIGNEXTEND SWAP1 JUMP JUMPDEST PUSH1 0x0 DUP1 SLOAD PUSH1 0xF SWAP3 SWAP1 SWAP3 SIGNEXTEND PUSH16 0xFFFFFFFFFFFFFFFFFFFFFFFFFFFFFFFF AND PUSH16 0xFFFFFFFFFFFFFFFFFFFFFFFFFFFFFFFF NOT SWAP1 SWAP3 AND SWAP2 SWAP1 SWAP2 OR SWAP1 SSTORE JUMP STOP LOG1 PUSH6 0x627A7A723058 KECCAK256 0x4f 0xde 0xe4 0xce 0xc6 0xb2 RETURNDATACOPY 0xad 0x2a 0x2e 0x1e 0x1f 0x4c 0xdd 0xa8 0xd8 0xdf 0xba 0xcb DUP5 SWAP14 SIGNEXTEND LOG2 0xdc PUSH15 0x75A26FC12708560029000000000000 "
	}
}